{
  "contractName": "FeaturedMessageBoard",
  "abi": [
    {
      "inputs": [
        {
          "internalType": "string",
          "name": "initialMessage",
          "type": "string"
        }
      ],
      "stateMutability": "nonpayable",
      "type": "constructor"
    },
    {
      "inputs": [],
      "name": "currentMessage",
      "outputs": [
        {
          "internalType": "string",
          "name": "",
          "type": "string"
        }
      ],
      "stateMutability": "view",
      "type": "function",
      "constant": true
    },
    {
      "inputs": [],
      "name": "lastUpdater",
      "outputs": [
        {
          "internalType": "address",
          "name": "",
          "type": "address"
        }
      ],
      "stateMutability": "view",
      "type": "function",
      "constant": true
    },
    {
      "inputs": [],
      "name": "likeCount",
      "outputs": [
        {
          "internalType": "uint256",
          "name": "",
          "type": "uint256"
        }
      ],
      "stateMutability": "view",
      "type": "function",
      "constant": true
    },
    {
      "inputs": [],
      "name": "totalLikesBalance",
      "outputs": [
        {
          "internalType": "uint256",
          "name": "",
          "type": "uint256"
        }
      ],
      "stateMutability": "view",
      "type": "function",
      "constant": true
    },
    {
      "inputs": [],
      "name": "likeMessage",
      "outputs": [],
      "stateMutability": "payable",
      "type": "function",
      "payable": true
    },
    {
      "inputs": [
        {
          "internalType": "string",
          "name": "_newMessage",
          "type": "string"
        }
      ],
      "name": "setMessage",
      "outputs": [],
      "stateMutability": "nonpayable",
      "type": "function"
    },
    {
      "inputs": [],
      "name": "getMessage",
      "outputs": [
        {
          "internalType": "string",
          "name": "",
          "type": "string"
        }
      ],
      "stateMutability": "view",
      "type": "function",
      "constant": true
    },
    {
      "inputs": [],
      "name": "getLastUpdater",
      "outputs": [
        {
          "internalType": "address",
          "name": "",
          "type": "address"
        }
      ],
      "stateMutability": "view",
      "type": "function",
      "constant": true
    },
    {
      "inputs": [],
      "name": "getLikeCount",
      "outputs": [
        {
          "internalType": "uint256",
          "name": "",
          "type": "uint256"
        }
      ],
      "stateMutability": "view",
      "type": "function",
      "constant": true
    }
  ],
  "bytecode": "0x608060405234801561001057600080fd5b506040516108ce3803806108ce83398101604081905261002f9161006a565b600061003b82826101bc565b5050600180546001600160a01b0319163317905561027b565b634e487b7160e01b600052604160045260246000fd5b6000602080838503121561007d57600080fd5b82516001600160401b038082111561009457600080fd5b818501915085601f8301126100a857600080fd5b8151818111156100ba576100ba610054565b604051601f8201601f19908116603f011681019083821181831017156100e2576100e2610054565b8160405282815288868487010111156100fa57600080fd5b600093505b8284101561011c57848401860151818501870152928501926100ff565b600086848301015280965050505050505092915050565b600181811c9082168061014757607f821691505b60208210810361016757634e487b7160e01b600052602260045260246000fd5b50919050565b601f8211156101b757600081815260208120601f850160051c810160208610156101945750805b601f850160051c820191505b818110156101b3578281556001016101a0565b5050505b505050565b81516001600160401b038111156101d5576101d5610054565b6101e9816101e38454610133565b8461016d565b602080601f83116001811461021e57600084156102065750858301515b600019600386901b1c1916600185901b1785556101b3565b600085815260208120601f198616915b8281101561024d5788860151825594840194600190910190840161022e565b508582101561026b5787850151600019600388901b60f8161c191681555b5050505050600190811b01905550565b6106448061028a6000396000f3fe6080604052600436106100865760003560e01c8063c4d67b0911610059578063c4d67b0914610110578063ce6d41de1461012f578063d48e2f4314610151578063d9203db614610167578063e5a0af3d1461017c57600080fd5b8063368b87721461008b5780635b898353146100ad5780637f84d072146100ea578063ba4f043714610108575b600080fd5b34801561009757600080fd5b506100ab6100a636600461037e565b610192565b005b3480156100b957600080fd5b506001546100cd906001600160a01b031681565b6040516001600160a01b0390911681526020015b60405180910390f35b3480156100f657600080fd5b506001546001600160a01b03166100cd565b6100ab6101b4565b34801561011c57600080fd5b506002545b6040519081526020016100e1565b34801561013b57600080fd5b50610144610248565b6040516100e1919061042f565b34801561015d57600080fd5b5061012160035481565b34801561017357600080fd5b506101446102da565b34801561018857600080fd5b5061012160025481565b600061019e8282610506565b5050600180546001600160a01b03191633179055565b655af3107a400034101561021a5760405162461bcd60e51b8152602060048201526024808201527f4d696e696d756d20302e303030312045544820726571756972656420746f206c60448201526334b5b29760e11b606482015260840160405180910390fd5b6002805490600061022a836105dc565b9190505550346003600082825461024191906105f5565b9091555050565b6060600080546102579061047d565b80601f01602080910402602001604051908101604052809291908181526020018280546102839061047d565b80156102d05780601f106102a5576101008083540402835291602001916102d0565b820191906000526020600020905b8154815290600101906020018083116102b357829003601f168201915b5050505050905090565b600080546102e79061047d565b80601f01602080910402602001604051908101604052809291908181526020018280546103139061047d565b80156103605780601f1061033557610100808354040283529160200191610360565b820191906000526020600020905b81548152906001019060200180831161034357829003601f168201915b505050505081565b634e487b7160e01b600052604160045260246000fd5b60006020828403121561039057600080fd5b813567ffffffffffffffff808211156103a857600080fd5b818401915084601f8301126103bc57600080fd5b8135818111156103ce576103ce610368565b604051601f8201601f19908116603f011681019083821181831017156103f6576103f6610368565b8160405282815287602084870101111561040f57600080fd5b826020860160208301376000928101602001929092525095945050505050565b600060208083528351808285015260005b8181101561045c57858101830151858201604001528201610440565b506000604082860101526040601f19601f8301168501019250505092915050565b600181811c9082168061049157607f821691505b6020821081036104b157634e487b7160e01b600052602260045260246000fd5b50919050565b601f82111561050157600081815260208120601f850160051c810160208610156104de5750805b601f850160051c820191505b818110156104fd578281556001016104ea565b5050505b505050565b815167ffffffffffffffff81111561052057610520610368565b6105348161052e845461047d565b846104b7565b602080601f83116001811461056957600084156105515750858301515b600019600386901b1c1916600185901b1785556104fd565b600085815260208120601f198616915b8281101561059857888601518255948401946001909101908401610579565b50858210156105b65787850151600019600388901b60f8161c191681555b5050505050600190811b01905550565b634e487b7160e01b600052601160045260246000fd5b6000600182016105ee576105ee6105c6565b5060010190565b80820180821115610608576106086105c6565b9291505056fea2646970667358221220783b43316cc867b9c487fb1eefa6ff8dfaecd2d9cceea64ad019ade6f4e35de864736f6c63430008140033",
  "immutableReferences": {},
  "source": "// SPDX-License-Identifier: MIT\r\npragma solidity ^0.8.20;\r\n\r\ncontract FeaturedMessageBoard {\r\n    // State Variables\r\n    string public currentMessage;\r\n    address public lastUpdater;\r\n    uint256 public likeCount; \r\n    uint256 public totalLikesBalance; // Tracks total ETH sent to like the message\r\n\r\n    // Constructor: Takes one argument (Initial Message)\r\n    constructor(string memory initialMessage) {\r\n        currentMessage = initialMessage;\r\n        lastUpdater = msg.sender;\r\n    }\r\n\r\n    // 1. Write Function (State change with value) - BONUS/PAYABLE\r\n    // Allows sending ETH to increase the like count.\r\n    function likeMessage() public payable {\r\n        // Require a minimum value (e.g., 0.0001 ETH = 100,000,000,000,000 Wei)\r\n        require(msg.value >= 100000000000000, \"Minimum 0.0001 ETH required to like.\"); \r\n        likeCount++;\r\n        totalLikesBalance += msg.value;\r\n    }\r\n\r\n    // 2. Write Function (State change) - REQUIRED\r\n    function setMessage(string memory _newMessage) public {\r\n        currentMessage = _newMessage;\r\n        lastUpdater = msg.sender;\r\n    }\r\n\r\n    // 3. Read Function (Automatic Getter) - REQUIRED\r\n    function getMessage() public view returns (string memory) {\r\n        return currentMessage;\r\n    }\r\n\r\n    // 4. Read Function (Automatic Getter)\r\n    function getLastUpdater() public view returns (address) {\r\n        return lastUpdater;\r\n    }\r\n\r\n    // 5. Read Function (Automatic Getter)\r\n    function getLikeCount() public view returns (uint256) {\r\n        return likeCount;\r\n    }\r\n}",
  "sourcePath": "C:\\Users\\HP\\Desktop\\BSFT_Assignment3\\contracts\\mydapp.sol",
  "compiler": {
    "name": "solc",
    "version": "0.8.20+commit.a1b79de6.Emscripten.clang"
  },
  "schemaVersion": "3.4.16",
  "updatedAt": "2025-11-22T11:50:11.306Z",
  "networkType": "ethereum",
  "devdoc": {
    "kind": "dev",
    "methods": {},
    "version": 1
  },
  "userdoc": {
    "kind": "user",
    "methods": {},
    "version": 1
  }
}